{"abi":[{"type":"constructor","inputs":[],"stateMutability":"nonpayable"},{"type":"function","name":"DEFAULT_ADMIN_ROLE","inputs":[],"outputs":[{"name":"","type":"bytes32","internalType":"bytes32"}],"stateMutability":"view"},{"type":"function","name":"IsSupportChainId","inputs":[{"name":"chainId","type":"uint256","internalType":"uint256"}],"outputs":[{"name":"","type":"bool","internalType":"bool"}],"stateMutability":"view"},{"type":"function","name":"IsSupportStableCoin","inputs":[{"name":"ERC20Address","type":"address","internalType":"address"}],"outputs":[{"name":"","type":"bool","internalType":"bool"}],"stateMutability":"view"},{"type":"function","name":"MAX_GAS_Limit","inputs":[],"outputs":[{"name":"","type":"uint32","internalType":"uint32"}],"stateMutability":"view"},{"type":"function","name":"MINDepositAmount","inputs":[],"outputs":[{"name":"","type":"uint256","internalType":"uint256"}],"stateMutability":"view"},{"type":"function","name":"MINDepositAmount_ROLE","inputs":[],"outputs":[{"name":"","type":"bytes32","internalType":"bytes32"}],"stateMutability":"view"},{"type":"function","name":"PAUSE_ROLE","inputs":[],"outputs":[{"name":"","type":"bytes32","internalType":"bytes32"}],"stateMutability":"view"},{"type":"function","name":"Total_ETH_StableCoin","inputs":[],"outputs":[{"name":"","type":"uint256","internalType":"uint256"}],"stateMutability":"view"},{"type":"function","name":"Total_ETH_StableCoin_fee","inputs":[],"outputs":[{"name":"","type":"uint256","internalType":"uint256"}],"stateMutability":"view"},{"type":"function","name":"Total_ETH_fee","inputs":[],"outputs":[{"name":"","type":"uint256","internalType":"uint256"}],"stateMutability":"view"},{"type":"function","name":"Total_ETH_value","inputs":[],"outputs":[{"name":"","type":"uint256","internalType":"uint256"}],"stateMutability":"view"},{"type":"function","name":"WithdrawETHtoOfficialBridge","inputs":[{"name":"to","type":"address","internalType":"address"}],"outputs":[{"name":"","type":"bool","internalType":"bool"}],"stateMutability":"payable"},{"type":"function","name":"WithdrawToBridge_Role","inputs":[],"outputs":[{"name":"","type":"bytes32","internalType":"bytes32"}],"stateMutability":"view"},{"type":"function","name":"depositETH","inputs":[{"name":"chainId","type":"uint256","internalType":"uint256"},{"name":"to","type":"address","internalType":"address"}],"outputs":[{"name":"","type":"bool","internalType":"bool"}],"stateMutability":"payable"},{"type":"function","name":"depositStableERC20","inputs":[{"name":"chainId","type":"uint256","internalType":"uint256"},{"name":"to","type":"address","internalType":"address"},{"name":"ERC20Address","type":"address","internalType":"address"},{"name":"value","type":"uint256","internalType":"uint256"}],"outputs":[{"name":"","type":"bool","internalType":"bool"}],"stateMutability":"nonpayable"},{"type":"function","name":"depositWETH","inputs":[{"name":"chainId","type":"uint256","internalType":"uint256"},{"name":"to","type":"address","internalType":"address"},{"name":"value","type":"uint256","internalType":"uint256"}],"outputs":[{"name":"","type":"bool","internalType":"bool"}],"stateMutability":"nonpayable"},{"type":"function","name":"getRoleAdmin","inputs":[{"name":"role","type":"bytes32","internalType":"bytes32"}],"outputs":[{"name":"","type":"bytes32","internalType":"bytes32"}],"stateMutability":"view"},{"type":"function","name":"grantRole","inputs":[{"name":"role","type":"bytes32","internalType":"bytes32"},{"name":"account","type":"address","internalType":"address"}],"outputs":[],"stateMutability":"nonpayable"},{"type":"function","name":"hasRole","inputs":[{"name":"role","type":"bytes32","internalType":"bytes32"},{"name":"account","type":"address","internalType":"address"}],"outputs":[{"name":"","type":"bool","internalType":"bool"}],"stateMutability":"view"},{"type":"function","name":"initialize","inputs":[{"name":"_MultisigWallet","type":"address","internalType":"address"}],"outputs":[],"stateMutability":"nonpayable"},{"type":"function","name":"pause","inputs":[],"outputs":[],"stateMutability":"nonpayable"},{"type":"function","name":"paused","inputs":[],"outputs":[{"name":"","type":"bool","internalType":"bool"}],"stateMutability":"view"},{"type":"function","name":"perfee","inputs":[],"outputs":[{"name":"","type":"uint256","internalType":"uint256"}],"stateMutability":"view"},{"type":"function","name":"renounceRole","inputs":[{"name":"role","type":"bytes32","internalType":"bytes32"},{"name":"callerConfirmation","type":"address","internalType":"address"}],"outputs":[],"stateMutability":"nonpayable"},{"type":"function","name":"revokeRole","inputs":[{"name":"role","type":"bytes32","internalType":"bytes32"},{"name":"account","type":"address","internalType":"address"}],"outputs":[],"stateMutability":"nonpayable"},{"type":"function","name":"setMINDepositAmount","inputs":[{"name":"_MINDepositAmount","type":"uint256","internalType":"uint256"}],"outputs":[],"stateMutability":"nonpayable"},{"type":"function","name":"setPerfee","inputs":[{"name":"_perfee","type":"uint256","internalType":"uint256"}],"outputs":[],"stateMutability":"nonpayable"},{"type":"function","name":"setSupportStableCoin","inputs":[{"name":"ERC20Address","type":"address","internalType":"address"},{"name":"isValid","type":"bool","internalType":"bool"}],"outputs":[],"stateMutability":"nonpayable"},{"type":"function","name":"setValidChainId","inputs":[{"name":"chainId","type":"uint256","internalType":"uint256"},{"name":"isValid","type":"bool","internalType":"bool"}],"outputs":[],"stateMutability":"nonpayable"},{"type":"function","name":"supportsInterface","inputs":[{"name":"interfaceId","type":"bytes4","internalType":"bytes4"}],"outputs":[{"name":"","type":"bool","internalType":"bool"}],"stateMutability":"view"},{"type":"function","name":"unpause","inputs":[],"outputs":[],"stateMutability":"nonpayable"},{"type":"event","name":"DepositERC20","inputs":[{"name":"chainId","type":"uint256","indexed":false,"internalType":"uint256"},{"name":"ERC20Address","type":"address","indexed":true,"internalType":"address"},{"name":"from","type":"address","indexed":true,"internalType":"address"},{"name":"to","type":"address","indexed":true,"internalType":"address"},{"name":"value","type":"uint256","indexed":false,"internalType":"uint256"}],"anonymous":false},{"type":"event","name":"DepositETH","inputs":[{"name":"chainId","type":"uint256","indexed":false,"internalType":"uint256"},{"name":"from","type":"address","indexed":true,"internalType":"address"},{"name":"to","type":"address","indexed":true,"internalType":"address"},{"name":"value","type":"uint256","indexed":false,"internalType":"uint256"}],"anonymous":false},{"type":"event","name":"DepositWETH","inputs":[{"name":"chainId","type":"uint256","indexed":false,"internalType":"uint256"},{"name":"from","type":"address","indexed":true,"internalType":"address"},{"name":"to","type":"address","indexed":true,"internalType":"address"},{"name":"value","type":"uint256","indexed":false,"internalType":"uint256"}],"anonymous":false},{"type":"event","name":"Initialized","inputs":[{"name":"version","type":"uint64","indexed":false,"internalType":"uint64"}],"anonymous":false},{"type":"event","name":"Paused","inputs":[{"name":"account","type":"address","indexed":false,"internalType":"address"}],"anonymous":false},{"type":"event","name":"RoleAdminChanged","inputs":[{"name":"role","type":"bytes32","indexed":true,"internalType":"bytes32"},{"name":"previousAdminRole","type":"bytes32","indexed":true,"internalType":"bytes32"},{"name":"newAdminRole","type":"bytes32","indexed":true,"internalType":"bytes32"}],"anonymous":false},{"type":"event","name":"RoleGranted","inputs":[{"name":"role","type":"bytes32","indexed":true,"internalType":"bytes32"},{"name":"account","type":"address","indexed":true,"internalType":"address"},{"name":"sender","type":"address","indexed":true,"internalType":"address"}],"anonymous":false},{"type":"event","name":"RoleRevoked","inputs":[{"name":"role","type":"bytes32","indexed":true,"internalType":"bytes32"},{"name":"account","type":"address","indexed":true,"internalType":"address"},{"name":"sender","type":"address","indexed":true,"internalType":"address"}],"anonymous":false},{"type":"event","name":"Unpaused","inputs":[{"name":"account","type":"address","indexed":false,"internalType":"address"}],"anonymous":false},{"type":"event","name":"WithdrawETHtoOfficialBridgeSuccess","inputs":[{"name":"chainId","type":"uint256","indexed":false,"internalType":"uint256"},{"name":"timestamp","type":"uint256","indexed":false,"internalType":"uint256"},{"name":"to","type":"address","indexed":false,"internalType":"address"},{"name":"value","type":"uint256","indexed":false,"internalType":"uint256"},{"name":"accumulationfee","type":"uint256","indexed":false,"internalType":"uint256"}],"anonymous":false},{"type":"error","name":"AccessControlBadConfirmation","inputs":[]},{"type":"error","name":"AccessControlUnauthorizedAccount","inputs":[{"name":"account","type":"address","internalType":"address"},{"name":"neededRole","type":"bytes32","internalType":"bytes32"}]},{"type":"error","name":"AddressEmptyCode","inputs":[{"name":"target","type":"address","internalType":"address"}]},{"type":"error","name":"AddressInsufficientBalance","inputs":[{"name":"account","type":"address","internalType":"address"}]},{"type":"error","name":"ChainIdIsNotSupported","inputs":[{"name":"id","type":"uint256","internalType":"uint256"}]},{"type":"error","name":"ChainIdNotSupported","inputs":[{"name":"chainId","type":"uint256","internalType":"uint256"}]},{"type":"error","name":"EnforcedPause","inputs":[]},{"type":"error","name":"ErrorBlockChain","inputs":[]},{"type":"error","name":"ExpectedPause","inputs":[]},{"type":"error","name":"FailedInnerCall","inputs":[]},{"type":"error","name":"InvalidInitialization","inputs":[]},{"type":"error","name":"LessThanMINDepositAmount","inputs":[{"name":"MINDepositAmount","type":"uint256","internalType":"uint256"},{"name":"value","type":"uint256","internalType":"uint256"}]},{"type":"error","name":"NotEnoughETH","inputs":[]},{"type":"error","name":"NotInitializing","inputs":[]},{"type":"error","name":"ReentrancyGuardReentrantCall","inputs":[]},{"type":"error","name":"SafeERC20FailedOperation","inputs":[{"name":"token","type":"address","internalType":"address"}]},{"type":"error","name":"StableCoinNotSupported","inputs":[{"name":"ERC20Address","type":"address","internalType":"address"}]}],"bytecode":{"object":"0x608060405234801561001057600080fd5b5061001961001e565b6100d0565b7ff0c57e16840df040f15088dc2f81fe391c3923bec73e23a9662efc9c229c6a00805468010000000000000000900460ff161561006e5760405163f92ee8a960e01b815260040160405180910390fd5b80546001600160401b03908116146100cd5780546001600160401b0319166001600160401b0390811782556040519081527fc7f505b2f371ae2175ee4913f4499e1f2633a7b5936321eed1cdaeb6115181d29060200160405180910390a15b50565b611a9d806100df6000396000f3fe6080604052600436106101d85760003560e01c80638456cb5911610102578063b42eab3611610095578063d73f14e511610064578063d73f14e5146104fc578063ebd248f71461051c578063ed06da8714610531578063f2f678ed1461056a57600080fd5b8063b42eab3614610489578063c4d66de81461049c578063d547741f146104bc578063d6a91401146104dc57600080fd5b8063a4e12bd8116100d1578063a4e12bd81461040b578063a525ae2b14610421578063a58f50b514610453578063b33280dd1461046957600080fd5b80638456cb59146103a157806391d14854146103b657806399e591b6146103d6578063a217fddf146103f657600080fd5b80633c946b571161017a57806356150edf1161014957806356150edf146103235780635c975abb1461033657806372fe6a7e1461035b5780638427c6161461038b57600080fd5b80633c946b57146102cd5780633f4ba83a146102e257806346c35119146102f75780634d0437431461030d57600080fd5b80632f2ff15d116101b65780632f2ff15d1461026057806332806bd91461028257806336568abe14610298578063389ed267146102b857600080fd5b806301ffc9a7146101dd57806315a12e8414610212578063248a9ca314610232575b600080fd5b3480156101e957600080fd5b506101fd6101f83660046117c4565b61058a565b60405190151581526020015b60405180910390f35b34801561021e57600080fd5b506101fd61022d36600461180a565b6105c1565b34801561023e57600080fd5b5061025261024d36600461184e565b6107ee565b604051908152602001610209565b34801561026c57600080fd5b5061028061027b366004611867565b610810565b005b34801561028e57600080fd5b5061025260075481565b3480156102a457600080fd5b506102806102b3366004611867565b610832565b3480156102c457600080fd5b5061025261086a565b3480156102d957600080fd5b506102526108c4565b3480156102ee57600080fd5b506102806108f2565b34801561030357600080fd5b5061025260045481565b34801561031957600080fd5b5061025260025481565b6101fd610331366004611867565b61095d565b34801561034257600080fd5b50600080516020611a488339815191525460ff166101fd565b34801561036757600080fd5b506101fd61037636600461184e565b60009081526020819052604090205460ff1690565b34801561039757600080fd5b5061025260065481565b3480156103ad57600080fd5b50610280610a6d565b3480156103c257600080fd5b506101fd6103d1366004611867565b610ad5565b3480156103e257600080fd5b506102806103f136600461184e565b610b0d565b34801561040257600080fd5b50610252600081565b34801561041757600080fd5b5061025260055481565b34801561042d57600080fd5b5060085461043e9063ffffffff1681565b60405163ffffffff9091168152602001610209565b34801561045f57600080fd5b5061025260035481565b34801561047557600080fd5b506102806104843660046118a1565b610b1e565b6101fd6104973660046118d8565b610b55565b3480156104a857600080fd5b506102806104b73660046118d8565b610dc3565b3480156104c857600080fd5b506102806104d7366004611867565b610f09565b3480156104e857600080fd5b506101fd6104f73660046118f3565b610f25565b34801561050857600080fd5b50610280610517366004611928565b61124a565b34801561052857600080fd5b50610252611276565b34801561053d57600080fd5b506101fd61054c3660046118d8565b6001600160a01b031660009081526001602052604090205460ff1690565b34801561057657600080fd5b5061028061058536600461184e565b6112a4565b60006001600160e01b03198216637965db0b60e01b14806105bb57506301ffc9a760e01b6001600160e01b03198316145b92915050565b60008481526020819052604081205460ff166105f8576040516363b5c9db60e01b8152600481018690526024015b60405180910390fd5b6001600160a01b03831660009081526001602052604090205460ff1661063c57604051631e859bc960e01b81526001600160a01b03841660048201526024016105ef565b6040516370a0823160e01b81523060048201526000906001600160a01b038516906370a0823190602401602060405180830381865afa158015610683573d6000803e3d6000fd5b505050506040513d601f19601f820116820180604052508101906106a7919061194d565b90506106be6001600160a01b03851633308661130a565b6040516370a0823160e01b81523060048201526000906001600160a01b038616906370a0823190602401602060405180830381865afa158015610705573d6000803e3d6000fd5b505050506040513d601f19601f82011682018060405250810190610729919061194d565b90506000610737838361197c565b9050806006600082825461074b919061198f565b9091555050600354600090620f42409061076590846119a2565b61076f91906119b9565b905061077b818361197c565b9150806007600082825461078f919061198f565b9091555050604080518a8152602081018490526001600160a01b03808b16923392918b16917fabc6fa8a366ad5068e5fdafc0582c211ead1967abbc53a92bd3ec8770120af37910160405180910390a450600198975050505050505050565b6000908152600080516020611a28833981519152602052604090206001015490565b610819826107ee565b61082281611364565b61082c838361136e565b50505050565b6001600160a01b038116331461085b5760405163334bd91960e11b815260040160405180910390fd5b6108658282611413565b505050565b60ff1961089860017f139c2898040ef16910dc9f44dc697df79363da767d8bc92f2e310312b816e46d61197c565b6040516020016108aa91815260200190565b604051602081830303815290604052805190602001201681565b60ff1961089860017fc94f5ebc27b61695249b62e5c31263c812b2c254bf4373bad13e55a04aa1fe0f61197c565b60ff1961092060017f139c2898040ef16910dc9f44dc697df79363da767d8bc92f2e310312b816e46d61197c565b60405160200161093291815260200190565b604051602081830303815290604052805190602001201661095281611364565b61095a61148f565b50565b60008281526020819052604081205460ff1661098f57604051632ef6974160e11b8152600481018490526024016105ef565b6002543410156109bf57600254604051631e50dd1360e31b815260048101919091523460248201526044016105ef565b34600460008282546109d1919061198f565b9091555050600354600090620f4240906109eb90346119a2565b6109f591906119b9565b90506000610a03823461197c565b90508160056000828254610a17919061198f565b909155505060408051868152602081018390526001600160a01b0386169133917f25dbc63f879c7913a1e148949bf04761d9ff12ca9519a1c0ac9d854e8a90a1e9910160405180910390a3506001949350505050565b60ff19610a9b60017f139c2898040ef16910dc9f44dc697df79363da767d8bc92f2e310312b816e46d61197c565b604051602001610aad91815260200190565b6040516020818303038152906040528051906020012016610acd81611364565b61095a6114ef565b6000918252600080516020611a28833981519152602090815260408084206001600160a01b0393909316845291905290205460ff1690565b6000610b1881611364565b50600355565b6000610b2981611364565b506001600160a01b03919091166000908152600160205260409020805460ff1916911515919091179055565b600060ff19610b8560017f2e2df3621cb2ee73bee5dc951d892afda1ef1cf747fed042bf9551c3a2f3ea9a61197c565b604051602001610b9791815260200190565b6040516020818303038152906040528051906020012016610bb781611364565b46476208274f829003610c50576008546040516317e614fd60e11b81526001600160a01b03871660048201526024810183905263ffffffff90911660448201527391e8addfe1358aca5314c644312d38237fc1101c90632fcc29fa9083906064015b6000604051808303818588803b158015610c3257600080fd5b505af1158015610c46573d6000803e3d6000fd5b5050505050610d5c565b816105a203610cc55760405163cd58657960e01b81526000600482018190526001600160a01b038716602483015260448201839052606482018190526084820181905260c060a483015260c4820152732a3dd3eb832af982ec71669e178424b10dca2ede9063cd58657990839060e401610c19565b8162aa37dc03610d4357600854604051631474f2a960e31b815273deaddeaddeaddeaddeaddeaddeaddeaddead000060048201526001600160a01b03871660248201526044810183905263ffffffff909116606482015260a06084820152600060a48201526010602160991b019063a3a7954890839060c401610c19565b604051639474dee160e01b815260040160405180910390fd5b60006005819055604080514681524260208201526001600160a01b03881681830152606081018490526080810192909252517f33bbde2a2b60368acec1dabd632f894d76037794b2a10bdf4fa55d367842e4719181900360a00190a1506001949350505050565b7ff0c57e16840df040f15088dc2f81fe391c3923bec73e23a9662efc9c229c6a008054600160401b810460ff16159067ffffffffffffffff16600081158015610e095750825b905060008267ffffffffffffffff166001148015610e265750303b155b905081158015610e34575080155b15610e525760405163f92ee8a960e01b815260040160405180910390fd5b845467ffffffffffffffff191660011785558315610e7c57845460ff60401b1916600160401b1785555b610e84611538565b610e8c611542565b610e9760008761136e565b50662386f26fc100006002556103e86003556008805463ffffffff1916620186a01790558315610f0157845460ff60401b19168555604051600181527fc7f505b2f371ae2175ee4913f4499e1f2633a7b5936321eed1cdaeb6115181d29060200160405180910390a15b505050505050565b610f12826107ee565b610f1b81611364565b61082c8383611413565b60008381526020819052604081205460ff16610f57576040516363b5c9db60e01b8152600481018590526024016105ef565b4660006208274f829003610f7357506004605360981b01610fab565b816105a203610f975750734f9a0e7fd2bf6067db6994cf12e4495df938e6e9610fab565b8162aa37dc03610d4357506006602160991b015b6040516370a0823160e01b81523060048201526000906001600160a01b038316906370a0823190602401602060405180830381865afa158015610ff2573d6000803e3d6000fd5b505050506040513d601f19601f82011682018060405250810190611016919061194d565b6040516323b872dd60e01b8152336004820152306024820152604481018790529091506001600160a01b038316906323b872dd906064016020604051808303816000875af115801561106c573d6000803e3d6000fd5b505050506040513d601f19601f8201168201806040525081019061109091906119db565b506040516370a0823160e01b81523060048201526000906001600160a01b038416906370a0823190602401602060405180830381865afa1580156110d8573d6000803e3d6000fd5b505050506040513d601f19601f820116820180604052508101906110fc919061194d565b9050600061110a838361197c565b905060025481101561113d57600254604051631e50dd1360e31b81526004810191909152602481018290526044016105ef565b604051632e1a7d4d60e01b8152600481018390526001600160a01b03851690632e1a7d4d90602401600060405180830381600087803b15801561117f57600080fd5b505af1158015611193573d6000803e3d6000fd5b5050505080600460008282546111a9919061198f565b9091555050600354600090620f4240906111c390846119a2565b6111cd91906119b9565b90506111d9818361197c565b915080600560008282546111ed919061198f565b9091555050604080518b8152602081018490526001600160a01b038b169133917f148ba123946a56f22f1acafa21440f6834fa36d19a4ad5d752f3647d45488541910160405180910390a3600196505050505050505b9392505050565b600061125581611364565b50600091825260208290526040909120805460ff1916911515919091179055565b60ff1961089860017f2e2df3621cb2ee73bee5dc951d892afda1ef1cf747fed042bf9551c3a2f3ea9a61197c565b60ff196112d260017fc94f5ebc27b61695249b62e5c31263c812b2c254bf4373bad13e55a04aa1fe0f61197c565b6040516020016112e491815260200190565b604051602081830303815290604052805190602001201661130481611364565b50600255565b604080516001600160a01b0385811660248301528416604482015260648082018490528251808303909101815260849091019091526020810180516001600160e01b03166323b872dd60e01b17905261082c908590611552565b61095a81336115b5565b6000600080516020611a288339815191526113898484610ad5565b611409576000848152602082815260408083206001600160a01b03871684529091529020805460ff191660011790556113bf3390565b6001600160a01b0316836001600160a01b0316857f2f8788117e7eff1d82e926ec794901d17c78024a50270940304540a733656f0d60405160405180910390a460019150506105bb565b60009150506105bb565b6000600080516020611a2883398151915261142e8484610ad5565b15611409576000848152602082815260408083206001600160a01b0387168085529252808320805460ff1916905551339287917ff6391f5c32d9c69d2a47ea670b442974b53935d1edc7fd64eb21e047a839171b9190a460019150506105bb565b6114976115f2565b600080516020611a48833981519152805460ff191681557f5db9ee0a495bf2e6ff9c91a7834c1ba4fdd244a5e8aa4e537bd38aeae4b073aa335b6040516001600160a01b03909116815260200160405180910390a150565b6114f7611622565b600080516020611a48833981519152805460ff191660011781557f62e78cea01bee320cd4e420270b5ea74000d11b0c9f74754ebdbfc544b05a258336114d1565b611540611653565b565b61154a611653565b61154061169c565b60006115676001600160a01b038416836116bd565b9050805160001415801561158c57508080602001905181019061158a91906119db565b155b1561086557604051635274afe760e01b81526001600160a01b03841660048201526024016105ef565b6115bf8282610ad5565b6115ee5760405163e2517d3f60e01b81526001600160a01b0382166004820152602481018390526044016105ef565b5050565b600080516020611a488339815191525460ff1661154057604051638dfc202b60e01b815260040160405180910390fd5b600080516020611a488339815191525460ff16156115405760405163d93c066560e01b815260040160405180910390fd5b7ff0c57e16840df040f15088dc2f81fe391c3923bec73e23a9662efc9c229c6a0054600160401b900460ff1661154057604051631afcd79f60e31b815260040160405180910390fd5b6116a4611653565b600080516020611a48833981519152805460ff19169055565b60606112438383600084600080856001600160a01b031684866040516116e391906119f8565b60006040518083038185875af1925050503d8060008114611720576040519150601f19603f3d011682016040523d82523d6000602084013e611725565b606091505b509150915061173586838361173f565b9695505050505050565b6060826117545761174f8261179b565b611243565b815115801561176b57506001600160a01b0384163b155b1561179457604051639996b31560e01b81526001600160a01b03851660048201526024016105ef565b5080611243565b8051156117ab5780518082602001fd5b604051630a12f52160e11b815260040160405180910390fd5b6000602082840312156117d657600080fd5b81356001600160e01b03198116811461124357600080fd5b80356001600160a01b038116811461180557600080fd5b919050565b6000806000806080858703121561182057600080fd5b84359350611830602086016117ee565b925061183e604086016117ee565b9396929550929360600135925050565b60006020828403121561186057600080fd5b5035919050565b6000806040838503121561187a57600080fd5b8235915061188a602084016117ee565b90509250929050565b801515811461095a57600080fd5b600080604083850312156118b457600080fd5b6118bd836117ee565b915060208301356118cd81611893565b809150509250929050565b6000602082840312156118ea57600080fd5b611243826117ee565b60008060006060848603121561190857600080fd5b83359250611918602085016117ee565b9150604084013590509250925092565b6000806040838503121561193b57600080fd5b8235915060208301356118cd81611893565b60006020828403121561195f57600080fd5b5051919050565b634e487b7160e01b600052601160045260246000fd5b818103818111156105bb576105bb611966565b808201808211156105bb576105bb611966565b80820281158282048414176105bb576105bb611966565b6000826119d657634e487b7160e01b600052601260045260246000fd5b500490565b6000602082840312156119ed57600080fd5b815161124381611893565b6000825160005b81811015611a1957602081860181015185830152016119ff565b50600092019182525091905056fe02dd7bc7dec4dceedda775e58dd541e08a116c6c53815c0bd028192f7b626800cd5ed15c6e187e77e9aee88184c21f4f2182ab5827cb3b7e07fbedcd63f03300a26469706673582212202c029f659ad3076553e6aa7b231c991034d4f4931d3115b2021c3afeacfdec1b64736f6c63430008160033","linkReferences":{}},"methodIdentifiers":{"DEFAULT_ADMIN_ROLE()":"a217fddf","IsSupportChainId(uint256)":"72fe6a7e","IsSupportStableCoin(address)":"ed06da87","MAX_GAS_Limit()":"a525ae2b","MINDepositAmount()":"4d043743","MINDepositAmount_ROLE()":"3c946b57","PAUSE_ROLE()":"389ed267","Total_ETH_StableCoin()":"8427c616","Total_ETH_StableCoin_fee()":"32806bd9","Total_ETH_fee()":"a4e12bd8","Total_ETH_value()":"46c35119","WithdrawETHtoOfficialBridge(address)":"b42eab36","WithdrawToBridge_Role()":"ebd248f7","depositETH(uint256,address)":"56150edf","depositStableERC20(uint256,address,address,uint256)":"15a12e84","depositWETH(uint256,address,uint256)":"d6a91401","getRoleAdmin(bytes32)":"248a9ca3","grantRole(bytes32,address)":"2f2ff15d","hasRole(bytes32,address)":"91d14854","initialize(address)":"c4d66de8","pause()":"8456cb59","paused()":"5c975abb","perfee()":"a58f50b5","renounceRole(bytes32,address)":"36568abe","revokeRole(bytes32,address)":"d547741f","setMINDepositAmount(uint256)":"f2f678ed","setPerfee(uint256)":"99e591b6","setSupportStableCoin(address,bool)":"b33280dd","setValidChainId(uint256,bool)":"d73f14e5","supportsInterface(bytes4)":"01ffc9a7","unpause()":"3f4ba83a"},"id":70}